{
  "contractName": "Cow",
  "abi": [
    {
      "constant": true,
      "inputs": [
        {
          "name": "interfaceId",
          "type": "bytes4"
        }
      ],
      "name": "supportsInterface",
      "outputs": [
        {
          "name": "",
          "type": "bool"
        }
      ],
      "payable": false,
      "stateMutability": "view",
      "type": "function",
      "signature": "0x01ffc9a7"
    },
    {
      "constant": true,
      "inputs": [],
      "name": "name",
      "outputs": [
        {
          "name": "",
          "type": "string"
        }
      ],
      "payable": false,
      "stateMutability": "view",
      "type": "function",
      "signature": "0x06fdde03"
    },
    {
      "constant": true,
      "inputs": [
        {
          "name": "tokenId",
          "type": "uint256"
        }
      ],
      "name": "getApproved",
      "outputs": [
        {
          "name": "",
          "type": "address"
        }
      ],
      "payable": false,
      "stateMutability": "view",
      "type": "function",
      "signature": "0x081812fc"
    },
    {
      "constant": false,
      "inputs": [
        {
          "name": "to",
          "type": "address"
        },
        {
          "name": "tokenId",
          "type": "uint256"
        }
      ],
      "name": "approve",
      "outputs": [],
      "payable": false,
      "stateMutability": "nonpayable",
      "type": "function",
      "signature": "0x095ea7b3"
    },
    {
      "constant": false,
      "inputs": [
        {
          "name": "from",
          "type": "address"
        },
        {
          "name": "to",
          "type": "address"
        },
        {
          "name": "tokenId",
          "type": "uint256"
        }
      ],
      "name": "transferFrom",
      "outputs": [],
      "payable": false,
      "stateMutability": "nonpayable",
      "type": "function",
      "signature": "0x23b872dd"
    },
    {
      "constant": false,
      "inputs": [
        {
          "name": "from",
          "type": "address"
        },
        {
          "name": "to",
          "type": "address"
        },
        {
          "name": "tokenId",
          "type": "uint256"
        }
      ],
      "name": "safeTransferFrom",
      "outputs": [],
      "payable": false,
      "stateMutability": "nonpayable",
      "type": "function",
      "signature": "0x42842e0e"
    },
    {
      "constant": true,
      "inputs": [],
      "name": "baseURI",
      "outputs": [
        {
          "name": "",
          "type": "string"
        }
      ],
      "payable": false,
      "stateMutability": "view",
      "type": "function",
      "signature": "0x6c0360eb"
    },
    {
      "constant": false,
      "inputs": [],
      "name": "renounceOwnership",
      "outputs": [],
      "payable": false,
      "stateMutability": "nonpayable",
      "type": "function",
      "signature": "0x715018a6"
    },
    {
      "constant": true,
      "inputs": [],
      "name": "startTime",
      "outputs": [
        {
          "name": "",
          "type": "uint256"
        }
      ],
      "payable": false,
      "stateMutability": "view",
      "type": "function",
      "signature": "0x78e97925"
    },
    {
      "constant": true,
      "inputs": [],
      "name": "genZeroInterval",
      "outputs": [
        {
          "name": "",
          "type": "uint256"
        }
      ],
      "payable": false,
      "stateMutability": "view",
      "type": "function",
      "signature": "0x8c474392"
    },
    {
      "constant": true,
      "inputs": [],
      "name": "owner",
      "outputs": [
        {
          "name": "",
          "type": "address"
        }
      ],
      "payable": false,
      "stateMutability": "view",
      "type": "function",
      "signature": "0x8da5cb5b"
    },
    {
      "constant": true,
      "inputs": [],
      "name": "isOwner",
      "outputs": [
        {
          "name": "",
          "type": "bool"
        }
      ],
      "payable": false,
      "stateMutability": "view",
      "type": "function",
      "signature": "0x8f32d59b"
    },
    {
      "constant": true,
      "inputs": [],
      "name": "symbol",
      "outputs": [
        {
          "name": "",
          "type": "string"
        }
      ],
      "payable": false,
      "stateMutability": "view",
      "type": "function",
      "signature": "0x95d89b41"
    },
    {
      "constant": false,
      "inputs": [
        {
          "name": "to",
          "type": "address"
        },
        {
          "name": "approved",
          "type": "bool"
        }
      ],
      "name": "setApprovalForAll",
      "outputs": [],
      "payable": false,
      "stateMutability": "nonpayable",
      "type": "function",
      "signature": "0xa22cb465"
    },
    {
      "constant": false,
      "inputs": [
        {
          "name": "from",
          "type": "address"
        },
        {
          "name": "to",
          "type": "address"
        },
        {
          "name": "tokenId",
          "type": "uint256"
        },
        {
          "name": "_data",
          "type": "bytes"
        }
      ],
      "name": "safeTransferFrom",
      "outputs": [],
      "payable": false,
      "stateMutability": "nonpayable",
      "type": "function",
      "signature": "0xb88d4fde"
    },
    {
      "constant": true,
      "inputs": [
        {
          "name": "",
          "type": "uint256"
        }
      ],
      "name": "lastStraw",
      "outputs": [
        {
          "name": "timestamp",
          "type": "uint256"
        },
        {
          "name": "counter",
          "type": "uint256"
        }
      ],
      "payable": false,
      "stateMutability": "view",
      "type": "function",
      "signature": "0xced6ef52"
    },
    {
      "constant": true,
      "inputs": [
        {
          "name": "owner",
          "type": "address"
        },
        {
          "name": "operator",
          "type": "address"
        }
      ],
      "name": "isApprovedForAll",
      "outputs": [
        {
          "name": "",
          "type": "bool"
        }
      ],
      "payable": false,
      "stateMutability": "view",
      "type": "function",
      "signature": "0xe985e9c5"
    },
    {
      "constant": false,
      "inputs": [
        {
          "name": "newOwner",
          "type": "address"
        }
      ],
      "name": "transferOwnership",
      "outputs": [],
      "payable": false,
      "stateMutability": "nonpayable",
      "type": "function",
      "signature": "0xf2fde38b"
    },
    {
      "inputs": [
        {
          "name": "name",
          "type": "string"
        },
        {
          "name": "symbol",
          "type": "string"
        },
        {
          "name": "_genZeroInterval",
          "type": "uint256"
        },
        {
          "name": "_genZeroLimit",
          "type": "uint256"
        }
      ],
      "payable": false,
      "stateMutability": "nonpayable",
      "type": "constructor",
      "signature": "constructor"
    },
    {
      "anonymous": false,
      "inputs": [
        {
          "indexed": true,
          "name": "owner",
          "type": "address"
        },
        {
          "indexed": false,
          "name": "tokenid",
          "type": "uint256"
        }
      ],
      "name": "Moof",
      "type": "event",
      "signature": "0x307aef90a83e1fcc686679aaa631cda0658b3eec3fbe77f340e2c1485da107a3"
    },
    {
      "anonymous": false,
      "inputs": [
        {
          "indexed": true,
          "name": "previousOwner",
          "type": "address"
        },
        {
          "indexed": true,
          "name": "newOwner",
          "type": "address"
        }
      ],
      "name": "OwnershipTransferred",
      "type": "event",
      "signature": "0x8be0079c531659141344cd1fd0a4f28419497f9722a3daafe3b4186f6b6457e0"
    },
    {
      "anonymous": false,
      "inputs": [
        {
          "indexed": true,
          "name": "from",
          "type": "address"
        },
        {
          "indexed": true,
          "name": "to",
          "type": "address"
        },
        {
          "indexed": true,
          "name": "tokenId",
          "type": "uint256"
        }
      ],
      "name": "Transfer",
      "type": "event",
      "signature": "0xddf252ad1be2c89b69c2b068fc378daa952ba7f163c4a11628f55a4df523b3ef"
    },
    {
      "anonymous": false,
      "inputs": [
        {
          "indexed": true,
          "name": "owner",
          "type": "address"
        },
        {
          "indexed": true,
          "name": "approved",
          "type": "address"
        },
        {
          "indexed": true,
          "name": "tokenId",
          "type": "uint256"
        }
      ],
      "name": "Approval",
      "type": "event",
      "signature": "0x8c5be1e5ebec7d5bd14f71427d1e84f3dd0314c0f7b2291e5b200ac8c7c3b925"
    },
    {
      "anonymous": false,
      "inputs": [
        {
          "indexed": true,
          "name": "owner",
          "type": "address"
        },
        {
          "indexed": true,
          "name": "operator",
          "type": "address"
        },
        {
          "indexed": false,
          "name": "approved",
          "type": "bool"
        }
      ],
      "name": "ApprovalForAll",
      "type": "event",
      "signature": "0x17307eab39ab6107e8899845ad3d59bd9653f200f220920489ca2b5937696c31"
    },
    {
      "constant": false,
      "inputs": [
        {
          "name": "_straws",
          "type": "address"
        }
      ],
      "name": "setStraws",
      "outputs": [],
      "payable": false,
      "stateMutability": "nonpayable",
      "type": "function",
      "signature": "0x70fce538"
    },
    {
      "constant": false,
      "inputs": [
        {
          "name": "_baseURI",
          "type": "string"
        }
      ],
      "name": "setBaseURI",
      "outputs": [],
      "payable": false,
      "stateMutability": "nonpayable",
      "type": "function",
      "signature": "0x55f804b3"
    },
    {
      "constant": true,
      "inputs": [
        {
          "name": "tokenId",
          "type": "uint256"
        }
      ],
      "name": "tokenURI",
      "outputs": [
        {
          "name": "",
          "type": "string"
        }
      ],
      "payable": false,
      "stateMutability": "view",
      "type": "function",
      "signature": "0xc87b56dd"
    },
    {
      "constant": true,
      "inputs": [],
      "name": "totalSupply",
      "outputs": [
        {
          "name": "",
          "type": "uint256"
        }
      ],
      "payable": false,
      "stateMutability": "view",
      "type": "function",
      "signature": "0x18160ddd"
    },
    {
      "constant": true,
      "inputs": [
        {
          "name": "_owner",
          "type": "address"
        }
      ],
      "name": "balanceOf",
      "outputs": [
        {
          "name": "",
          "type": "uint256"
        }
      ],
      "payable": false,
      "stateMutability": "view",
      "type": "function",
      "signature": "0x70a08231"
    },
    {
      "constant": true,
      "inputs": [
        {
          "name": "tokenId",
          "type": "uint256"
        }
      ],
      "name": "ownerOf",
      "outputs": [
        {
          "name": "",
          "type": "address"
        }
      ],
      "payable": false,
      "stateMutability": "view",
      "type": "function",
      "signature": "0x6352211e"
    },
    {
      "constant": true,
      "inputs": [
        {
          "name": "_owner",
          "type": "address"
        },
        {
          "name": "index",
          "type": "uint256"
        }
      ],
      "name": "tokenOfOwnerByIndex",
      "outputs": [
        {
          "name": "",
          "type": "uint256"
        }
      ],
      "payable": false,
      "stateMutability": "view",
      "type": "function",
      "signature": "0x2f745c59"
    },
    {
      "constant": true,
      "inputs": [
        {
          "name": "index",
          "type": "uint256"
        }
      ],
      "name": "tokenByIndex",
      "outputs": [
        {
          "name": "",
          "type": "uint256"
        }
      ],
      "payable": false,
      "stateMutability": "view",
      "type": "function",
      "signature": "0x4f6ccce7"
    },
    {
      "constant": true,
      "inputs": [
        {
          "name": "tokenId",
          "type": "uint256"
        }
      ],
      "name": "getDNA",
      "outputs": [
        {
          "name": "",
          "type": "bytes32"
        }
      ],
      "payable": false,
      "stateMutability": "view",
      "type": "function",
      "signature": "0x5bb209a5"
    },
    {
      "constant": true,
      "inputs": [],
      "name": "blockTime",
      "outputs": [
        {
          "name": "",
          "type": "uint256"
        }
      ],
      "payable": false,
      "stateMutability": "view",
      "type": "function",
      "signature": "0x48b15166"
    },
    {
      "constant": true,
      "inputs": [
        {
          "name": "tokenId",
          "type": "uint256"
        }
      ],
      "name": "getMoofactoryPeriod",
      "outputs": [
        {
          "name": "",
          "type": "uint256"
        }
      ],
      "payable": false,
      "stateMutability": "view",
      "type": "function",
      "signature": "0x55ced49d"
    },
    {
      "constant": false,
      "inputs": [
        {
          "name": "strawId1",
          "type": "uint256"
        },
        {
          "name": "strawId2",
          "type": "uint256"
        }
      ],
      "name": "moof",
      "outputs": [],
      "payable": false,
      "stateMutability": "nonpayable",
      "type": "function",
      "signature": "0x5e150b4a"
    },
    {
      "constant": false,
      "inputs": [
        {
          "name": "tokenId",
          "type": "uint256"
        }
      ],
      "name": "generatedStraw",
      "outputs": [],
      "payable": false,
      "stateMutability": "nonpayable",
      "type": "function",
      "signature": "0xec6d916f"
    },
    {
      "constant": true,
      "inputs": [
        {
          "name": "tokenId",
          "type": "uint256"
        }
      ],
      "name": "nextStraw",
      "outputs": [
        {
          "name": "",
          "type": "uint256"
        },
        {
          "name": "",
          "type": "uint256"
        }
      ],
      "payable": false,
      "stateMutability": "view",
      "type": "function",
      "signature": "0x536452de"
    },
    {
      "constant": true,
      "inputs": [],
      "name": "genZeroCount",
      "outputs": [
        {
          "name": "",
          "type": "uint256"
        }
      ],
      "payable": false,
      "stateMutability": "view",
      "type": "function",
      "signature": "0x3b91cae9"
    }
  ],
  "bytecode": "0x60806040523480156200001157600080fd5b5060405162003ba338038062003ba3833981018060405260808110156200003757600080fd5b8101908080516401000000008111156200005057600080fd5b828101905060208101848111156200006757600080fd5b81518560018202830111640100000000821117156200008557600080fd5b50509291906020018051640100000000811115620000a257600080fd5b82810190506020810184811115620000b957600080fd5b8151856001820283011164010000000082111715620000d757600080fd5b5050929190602001805190602001909291908051906020019092919050505083838181620001376301ffc9a77c0100000000000000000000000000000000000000000000000000000000026200030d640100000000026401000000009004565b620001746380ac58cd7c0100000000000000000000000000000000000000000000000000000000026200030d640100000000026401000000009004565b620001b163780e9d637c0100000000000000000000000000000000000000000000000000000000026200030d640100000000026401000000009004565b8160099080519060200190620001c9929190620003cb565b5080600a9080519060200190620001e2929190620003cb565b5062000220635b5e139f7c0100000000000000000000000000000000000000000000000000000000026200030d640100000000026401000000009004565b5050505033600c60006101000a81548173ffffffffffffffffffffffffffffffffffffffff021916908373ffffffffffffffffffffffffffffffffffffffff160217905550600c60009054906101000a900473ffffffffffffffffffffffffffffffffffffffff1673ffffffffffffffffffffffffffffffffffffffff16600073ffffffffffffffffffffffffffffffffffffffff167f8be0079c531659141344cd1fd0a4f28419497f9722a3daafe3b4186f6b6457e060405160405180910390a342600e8190555081600f8190555080601081905550600160105401601381905550505050506200047a565b63ffffffff7c010000000000000000000000000000000000000000000000000000000002817bffffffffffffffffffffffffffffffffffffffffffffffffffffffff1916141515156200035f57600080fd5b6001600080837bffffffffffffffffffffffffffffffffffffffffffffffffffffffff19167bffffffffffffffffffffffffffffffffffffffffffffffffffffffff1916815260200190815260200160002060006101000a81548160ff02191690831515021790555050565b828054600181600116156101000203166002900490600052602060002090601f016020900481019282601f106200040e57805160ff19168380011785556200043f565b828001600101855582156200043f579182015b828111156200043e57825182559160200191906001019062000421565b5b5090506200044e919062000452565b5090565b6200047791905b808211156200047357600081600090555060010162000459565b5090565b90565b613719806200048a6000396000f3fe6080604052600436106101a1576000357c0100000000000000000000000000000000000000000000000000000000900463ffffffff16806301ffc9a7146101a657806306fdde0314610218578063081812fc146102a8578063095ea7b31461032357806318160ddd1461037e57806323b872dd146103a95780632f745c59146104245780633b91cae91461049357806342842e0e146104be57806348b15166146105395780634f6ccce714610564578063536452de146105b357806355ced49d1461060957806355f804b3146106585780635bb209a5146107205780635e150b4a1461076f5780636352211e146107b45780636c0360eb1461082f57806370a08231146108bf57806370fce53814610924578063715018a61461097557806378e979251461098c5780638c474392146109b75780638da5cb5b146109e25780638f32d59b14610a3957806395d89b4114610a68578063a22cb46514610af8578063b88d4fde14610b55578063c87b56dd14610c67578063ced6ef5214610d1b578063e985e9c514610d71578063ec6d916f14610dfa578063f2fde38b14610e35575b600080fd5b3480156101b257600080fd5b506101fe600480360360208110156101c957600080fd5b8101908080357bffffffffffffffffffffffffffffffffffffffffffffffffffffffff19169060200190929190505050610e86565b604051808215151515815260200191505060405180910390f35b34801561022457600080fd5b5061022d610eed565b6040518080602001828103825283818151815260200191508051906020019080838360005b8381101561026d578082015181840152602081019050610252565b50505050905090810190601f16801561029a5780820380516001836020036101000a031916815260200191505b509250505060405180910390f35b3480156102b457600080fd5b506102e1600480360360208110156102cb57600080fd5b8101908080359060200190929190505050610f8f565b604051808273ffffffffffffffffffffffffffffffffffffffff1673ffffffffffffffffffffffffffffffffffffffff16815260200191505060405180910390f35b34801561032f57600080fd5b5061037c6004803603604081101561034657600080fd5b81019080803573ffffffffffffffffffffffffffffffffffffffff16906020019092919080359060200190929190505050610fe0565b005b34801561038a57600080fd5b50610393611125565b6040518082815260200191505060405180910390f35b3480156103b557600080fd5b50610422600480360360608110156103cc57600080fd5b81019080803573ffffffffffffffffffffffffffffffffffffffff169060200190929190803573ffffffffffffffffffffffffffffffffffffffff16906020019092919080359060200190929190505050611161565b005b34801561043057600080fd5b5061047d6004803603604081101561044757600080fd5b81019080803573ffffffffffffffffffffffffffffffffffffffff16906020019092919080359060200190929190505050611186565b6040518082815260200191505060405180910390f35b34801561049f57600080fd5b506104a86112a5565b6040518082815260200191505060405180910390f35b3480156104ca57600080fd5b50610537600480360360608110156104e157600080fd5b81019080803573ffffffffffffffffffffffffffffffffffffffff169060200190929190803573ffffffffffffffffffffffffffffffffffffffff169060200190929190803590602001909291905050506112d9565b005b34801561054557600080fd5b5061054e6112fa565b6040518082815260200191505060405180910390f35b34801561057057600080fd5b5061059d6004803603602081101561058757600080fd5b8101908080359060200190929190505050611302565b6040518082815260200191505060405180910390f35b3480156105bf57600080fd5b506105ec600480360360208110156105d657600080fd5b8101908080359060200190929190505050611414565b604051808381526020018281526020019250505060405180910390f35b34801561061557600080fd5b506106426004803603602081101561062c57600080fd5b810190808035906020019092919050505061145b565b6040518082815260200191505060405180910390f35b34801561066457600080fd5b5061071e6004803603602081101561067b57600080fd5b810190808035906020019064010000000081111561069857600080fd5b8201836020820111156106aa57600080fd5b803590602001918460018302840111640100000000831117156106cc57600080fd5b91908080601f016020809104026020016040519081016040528093929190818152602001838380828437600081840152601f19601f82011690508083019250505050505050919291929050505061147a565b005b34801561072c57600080fd5b506107596004803603602081101561074357600080fd5b81019080803590602001909291905050506114a7565b6040518082815260200191505060405180910390f35b34801561077b57600080fd5b506107b26004803603604081101561079257600080fd5b81019080803590602001909291908035906020019092919050505061151b565b005b3480156107c057600080fd5b506107ed600480360360208110156107d757600080fd5b8101908080359060200190929190505050611ca7565b604051808273ffffffffffffffffffffffffffffffffffffffff1673ffffffffffffffffffffffffffffffffffffffff16815260200191505060405180910390f35b34801561083b57600080fd5b50610844611cec565b6040518080602001828103825283818151815260200191508051906020019080838360005b83811015610884578082015181840152602081019050610869565b50505050905090810190601f1680156108b15780820380516001836020036101000a031916815260200191505b509250505060405180910390f35b3480156108cb57600080fd5b5061090e600480360360208110156108e257600080fd5b81019080803573ffffffffffffffffffffffffffffffffffffffff169060200190929190505050611d8a565b6040518082815260200191505060405180910390f35b34801561093057600080fd5b506109736004803603602081101561094757600080fd5b81019080803573ffffffffffffffffffffffffffffffffffffffff169060200190929190505050611dfc565b005b34801561098157600080fd5b5061098a611eb0565b005b34801561099857600080fd5b506109a1611f84565b6040518082815260200191505060405180910390f35b3480156109c357600080fd5b506109cc611f8a565b6040518082815260200191505060405180910390f35b3480156109ee57600080fd5b506109f7611f90565b604051808273ffffffffffffffffffffffffffffffffffffffff1673ffffffffffffffffffffffffffffffffffffffff16815260200191505060405180910390f35b348015610a4557600080fd5b50610a4e611fba565b604051808215151515815260200191505060405180910390f35b348015610a7457600080fd5b50610a7d612012565b6040518080602001828103825283818151815260200191508051906020019080838360005b83811015610abd578082015181840152602081019050610aa2565b50505050905090810190601f168015610aea5780820380516001836020036101000a031916815260200191505b509250505060405180910390f35b348015610b0457600080fd5b50610b5360048036036040811015610b1b57600080fd5b81019080803573ffffffffffffffffffffffffffffffffffffffff1690602001909291908035151590602001909291905050506120b4565b005b348015610b6157600080fd5b50610c6560048036036080811015610b7857600080fd5b81019080803573ffffffffffffffffffffffffffffffffffffffff169060200190929190803573ffffffffffffffffffffffffffffffffffffffff1690602001909291908035906020019092919080359060200190640100000000811115610bdf57600080fd5b820183602082011115610bf157600080fd5b80359060200191846001830284011164010000000083111715610c1357600080fd5b91908080601f016020809104026020016040519081016040528093929190818152602001838380828437600081840152601f19601f8201169050808301925050505050505091929192905050506121f0565b005b348015610c7357600080fd5b50610ca060048036036020811015610c8a57600080fd5b8101908080359060200190929190505050612218565b6040518080602001828103825283818151815260200191508051906020019080838360005b83811015610ce0578082015181840152602081019050610cc5565b50505050905090810190601f168015610d0d5780820380516001836020036101000a031916815260200191505b509250505060405180910390f35b348015610d2757600080fd5b50610d5460048036036020811015610d3e57600080fd5b8101908080359060200190929190505050612306565b604051808381526020018281526020019250505060405180910390f35b348015610d7d57600080fd5b50610de060048036036040811015610d9457600080fd5b81019080803573ffffffffffffffffffffffffffffffffffffffff169060200190929190803573ffffffffffffffffffffffffffffffffffffffff16906020019092919050505061232a565b604051808215151515815260200191505060405180910390f35b348015610e0657600080fd5b50610e3360048036036020811015610e1d57600080fd5b81019080803590602001909291905050506123be565b005b348015610e4157600080fd5b50610e8460048036036020811015610e5857600080fd5b81019080803573ffffffffffffffffffffffffffffffffffffffff1690602001909291905050506124e5565b005b6000806000837bffffffffffffffffffffffffffffffffffffffffffffffffffffffff19167bffffffffffffffffffffffffffffffffffffffffffffffffffffffff1916815260200190815260200160002060009054906101000a900460ff169050919050565b606060098054600181600116156101000203166002900480601f016020809104026020016040519081016040528092919081815260200182805460018160011615610100020316600290048015610f855780601f10610f5a57610100808354040283529160200191610f85565b820191906000526020600020905b815481529060010190602001808311610f6857829003601f168201915b5050505050905090565b6000610f9a82612504565b1515610fa557600080fd5b6002600083815260200190815260200160002060009054906101000a900473ffffffffffffffffffffffffffffffffffffffff169050919050565b6000610feb82611ca7565b90508073ffffffffffffffffffffffffffffffffffffffff168373ffffffffffffffffffffffffffffffffffffffff161415151561102857600080fd5b8073ffffffffffffffffffffffffffffffffffffffff163373ffffffffffffffffffffffffffffffffffffffff1614806110685750611067813361232a565b5b151561107357600080fd5b826002600084815260200190815260200160002060006101000a81548173ffffffffffffffffffffffffffffffffffffffff021916908373ffffffffffffffffffffffffffffffffffffffff160217905550818373ffffffffffffffffffffffffffffffffffffffff168273ffffffffffffffffffffffffffffffffffffffff167f8c5be1e5ebec7d5bd14f71427d1e84f3dd0314c0f7b2291e5b200ac8c7c3b92560405160405180910390a4505050565b600061115c60115461114e6111386112a5565b611140612540565b61254d90919063ffffffff16565b61256e90919063ffffffff16565b905090565b61116b3382612590565b151561117657600080fd5b611181838383612625565b505050565b6000611190611f90565b73ffffffffffffffffffffffffffffffffffffffff168373ffffffffffffffffffffffffffffffffffffffff161415156111d5576111ce838361268c565b905061129f565b6000809050600060125490505b6111ea6112a5565b811015611226576111fa81612703565b1515611219578382141561121257809250505061129f565b6001820191505b80806001019150506111e2565b50506000151561129e576040517f08c379a000000000000000000000000000000000000000000000000000000000815260040180806020018281038252600f8152602001807f494e4445585f4552524f525f434f57000000000000000000000000000000000081525060200191505060405180910390fd5b5b92915050565b600080600f54600e5442038115156112b957fe5b0490506010548111156112d1576010549150506112d6565b809150505b90565b6112f583838360206040519081016040528060008152506121f0565b505050565b600042905090565b600061130c611125565b8210151561131957600080fd5b611321612540565b8210156113385761133182612775565b905061140f565b60006001611344612540565b8403019050600060125490505b6113596112a5565b8110156113965761136981612703565b1515611376576001820391505b600082141561138957809250505061140f565b8080600101915050611351565b506000151561140d576040517f08c379a00000000000000000000000000000000000000000000000000000000081526004018080602001828103825260128152602001807f494e4445585f4f55545f4f465f52414e4745000000000000000000000000000081525060200191505060405180910390fd5b505b919050565b6000806114208361145b565b601760008581526020019081526020016000206000015401600160176000868152602001908152602001600020600101540191509150915091565b600061a8c06201ffff61146d846114a7565b6001900416019050919050565b611482611fba565b151561148d57600080fd5b80600d90805190602001906114a3929190613602565b5050565b60006114b282612504565b15156114bd57600080fd5b6010548210156114ff5781600e546040516020018083815260200182815260200192505050604051602081830303815290604052805190602001209050611516565b601560008381526020019081526020016000205490505b919050565b3373ffffffffffffffffffffffffffffffffffffffff16601460019054906101000a900473ffffffffffffffffffffffffffffffffffffffff1673ffffffffffffffffffffffffffffffffffffffff16636352211e846040518263ffffffff167c01000000000000000000000000000000000000000000000000000000000281526004018082815260200191505060206040518083038186803b1580156115c157600080fd5b505afa1580156115d5573d6000803e3d6000fd5b505050506040513d60208110156115eb57600080fd5b810190808051906020019092919050505073ffffffffffffffffffffffffffffffffffffffff16141515611687576040517f08c379a000000000000000000000000000000000000000000000000000000000815260040180806020018281038252600e8152602001807f4241445f4f574e4552534849503100000000000000000000000000000000000081525060200191505060405180910390fd5b3373ffffffffffffffffffffffffffffffffffffffff16601460019054906101000a900473ffffffffffffffffffffffffffffffffffffffff1673ffffffffffffffffffffffffffffffffffffffff16636352211e836040518263ffffffff167c01000000000000000000000000000000000000000000000000000000000281526004018082815260200191505060206040518083038186803b15801561172d57600080fd5b505afa158015611741573d6000803e3d6000fd5b505050506040513d602081101561175757600080fd5b810190808051906020019092919050505073ffffffffffffffffffffffffffffffffffffffff161415156117f3576040517f08c379a000000000000000000000000000000000000000000000000000000000815260040180806020018281038252600e8152602001807f4241445f4f574e4552534849503200000000000000000000000000000000000081525060200191505060405180910390fd5b6117fb613682565b6040805190810160405280601460019054906101000a900473ffffffffffffffffffffffffffffffffffffffff1673ffffffffffffffffffffffffffffffffffffffff16634eaa9d22866040518263ffffffff167c01000000000000000000000000000000000000000000000000000000000281526004018082815260200191505060206040518083038186803b15801561189557600080fd5b505afa1580156118a9573d6000803e3d6000fd5b505050506040513d60208110156118bf57600080fd5b81019080805190602001909291905050508152602001601460019054906101000a900473ffffffffffffffffffffffffffffffffffffffff1673ffffffffffffffffffffffffffffffffffffffff16634eaa9d22856040518263ffffffff167c01000000000000000000000000000000000000000000000000000000000281526004018082815260200191505060206040518083038186803b15801561196457600080fd5b505afa158015611978573d6000803e3d6000fd5b505050506040513d602081101561198e57600080fd5b810190808051906020019092919050505081525090508060200151816000015114151515611a24576040517f08c379a000000000000000000000000000000000000000000000000000000000815260040180806020018281038252600b8152602001807f53414d455f504152454e5400000000000000000000000000000000000000000081525060200191505060405180910390fd5b6000838383600001518460200151600e546040516020018086815260200185815260200184815260200183815260200182815260200195505050505050604051602081830303815290604052805190602001206001900490506001601360008282540192505081905550611a9a336013546127ad565b611aa782602001516114a7565b600190047fffffffffffffffffffffffffffffffffffffffffffffffffffffffffffffffff821816611adc83600001516114a7565b60019004821617600102601560006013548152602001908152602001600020819055503373ffffffffffffffffffffffffffffffffffffffff167f307aef90a83e1fcc686679aaa631cda0658b3eec3fbe77f340e2c1485da107a36013546040518082815260200191505060405180910390a2601460019054906101000a900473ffffffffffffffffffffffffffffffffffffffff1673ffffffffffffffffffffffffffffffffffffffff166342966c68856040518263ffffffff167c010000000000000000000000000000000000000000000000000000000002815260040180828152602001915050600060405180830381600087803b158015611be057600080fd5b505af1158015611bf4573d6000803e3d6000fd5b50505050601460019054906101000a900473ffffffffffffffffffffffffffffffffffffffff1673ffffffffffffffffffffffffffffffffffffffff166342966c68846040518263ffffffff167c010000000000000000000000000000000000000000000000000000000002815260040180828152602001915050600060405180830381600087803b158015611c8957600080fd5b505af1158015611c9d573d6000803e3d6000fd5b5050505050505050565b6000611cb282612703565b15611cc757611cc0826127ce565b9050611ce7565b611ccf6112a5565b82101515611cdc57600080fd5b611ce4611f90565b90505b919050565b600d8054600181600116156101000203166002900480601f016020809104026020016040519081016040528092919081815260200182805460018160011615610100020316600290048015611d825780601f10611d5757610100808354040283529160200191611d82565b820191906000526020600020905b815481529060010190602001808311611d6557829003601f168201915b505050505081565b6000611d94611f90565b73ffffffffffffffffffffffffffffffffffffffff168273ffffffffffffffffffffffffffffffffffffffff16141515611dd857611dd18261284c565b9050611df7565b611df4601154611de66112a5565b61256e90919063ffffffff16565b90505b919050565b611e04611fba565b1515611e0f57600080fd5b600073ffffffffffffffffffffffffffffffffffffffff16601460019054906101000a900473ffffffffffffffffffffffffffffffffffffffff1673ffffffffffffffffffffffffffffffffffffffff16141515611e6c57600080fd5b80601460016101000a81548173ffffffffffffffffffffffffffffffffffffffff021916908373ffffffffffffffffffffffffffffffffffffffff16021790555050565b611eb8611fba565b1515611ec357600080fd5b600073ffffffffffffffffffffffffffffffffffffffff16600c60009054906101000a900473ffffffffffffffffffffffffffffffffffffffff1673ffffffffffffffffffffffffffffffffffffffff167f8be0079c531659141344cd1fd0a4f28419497f9722a3daafe3b4186f6b6457e060405160405180910390a36000600c60006101000a81548173ffffffffffffffffffffffffffffffffffffffff021916908373ffffffffffffffffffffffffffffffffffffffff160217905550565b600e5481565b600f5481565b6000600c60009054906101000a900473ffffffffffffffffffffffffffffffffffffffff16905090565b6000600c60009054906101000a900473ffffffffffffffffffffffffffffffffffffffff1673ffffffffffffffffffffffffffffffffffffffff163373ffffffffffffffffffffffffffffffffffffffff1614905090565b6060600a8054600181600116156101000203166002900480601f0160208091040260200160405190810160405280929190818152602001828054600181600116156101000203166002900480156120aa5780601f1061207f576101008083540402835291602001916120aa565b820191906000526020600020905b81548152906001019060200180831161208d57829003601f168201915b5050505050905090565b3373ffffffffffffffffffffffffffffffffffffffff168273ffffffffffffffffffffffffffffffffffffffff16141515156120ef57600080fd5b80600460003373ffffffffffffffffffffffffffffffffffffffff1673ffffffffffffffffffffffffffffffffffffffff16815260200190815260200160002060008473ffffffffffffffffffffffffffffffffffffffff1673ffffffffffffffffffffffffffffffffffffffff16815260200190815260200160002060006101000a81548160ff0219169083151502179055508173ffffffffffffffffffffffffffffffffffffffff163373ffffffffffffffffffffffffffffffffffffffff167f17307eab39ab6107e8899845ad3d59bd9653f200f220920489ca2b5937696c3183604051808215151515815260200191505060405180910390a35050565b6121fb848484611161565b612207848484846128d0565b151561221257600080fd5b50505050565b606061222382612504565b151561222e57600080fd5b600d61223983612af3565b60405160200180838054600181600116156101000203166002900480156122975780601f10612275576101008083540402835291820191612297565b820191906000526020600020905b815481529060010190602001808311612283575b505082805190602001908083835b6020831015156122ca57805182526020820191506020810190506020830392506122a5565b6001836020036101000a038019825116818451168082178552505050505050905001925050506040516020818303038152906040529050919050565b60176020528060005260406000206000915090508060000154908060010154905082565b6000600460008473ffffffffffffffffffffffffffffffffffffffff1673ffffffffffffffffffffffffffffffffffffffff16815260200190815260200160002060008373ffffffffffffffffffffffffffffffffffffffff1673ffffffffffffffffffffffffffffffffffffffff16815260200190815260200160002060009054906101000a900460ff16905092915050565b601460019054906101000a900473ffffffffffffffffffffffffffffffffffffffff1673ffffffffffffffffffffffffffffffffffffffff163373ffffffffffffffffffffffffffffffffffffffff16141515612483576040517f08c379a000000000000000000000000000000000000000000000000000000000815260040180806020018281038252600f8152602001807f57524f4e475f47454e455241544f52000000000000000000000000000000000081525060200191505060405180910390fd5b4260176000838152602001908152602001600020600001819055506124c86001601760008481526020019081526020016000206001015461254d90919063ffffffff16565b601760008381526020019081526020016000206001018190555050565b6124ed611fba565b15156124f857600080fd5b61250181612c4c565b50565b600061250f82612703565b806125395750601460009054906101000a900460ff1615801561253857506125356112a5565b82105b5b9050919050565b6000600780549050905090565b600080828401905083811015151561256457600080fd5b8091505092915050565b600082821115151561257f57600080fd5b600082840390508091505092915050565b60008061259c83611ca7565b90508073ffffffffffffffffffffffffffffffffffffffff168473ffffffffffffffffffffffffffffffffffffffff16148061260b57508373ffffffffffffffffffffffffffffffffffffffff166125f384610f8f565b73ffffffffffffffffffffffffffffffffffffffff16145b8061261c575061261b818561232a565b5b91505092915050565b61262e81612703565b15801561266d575061263e611f90565b73ffffffffffffffffffffffffffffffffffffffff168373ffffffffffffffffffffffffffffffffffffffff16145b1561267c5761267b81612d48565b5b612687838383612e56565b505050565b600061269783611d8a565b821015156126a457600080fd5b600560008473ffffffffffffffffffffffffffffffffffffffff1673ffffffffffffffffffffffffffffffffffffffff168152602001908152602001600020828154811015156126f057fe5b9060005260206000200154905092915050565b6000806001600084815260200190815260200160002060009054906101000a900473ffffffffffffffffffffffffffffffffffffffff169050600073ffffffffffffffffffffffffffffffffffffffff168173ffffffffffffffffffffffffffffffffffffffff161415915050919050565b600061277f611125565b8210151561278c57600080fd5b60078281548110151561279b57fe5b90600052602060002001549050919050565b6127b78282612e7a565b6127c18282613013565b6127ca816130da565b5050565b6000806001600084815260200190815260200160002060009054906101000a900473ffffffffffffffffffffffffffffffffffffffff169050600073ffffffffffffffffffffffffffffffffffffffff168173ffffffffffffffffffffffffffffffffffffffff161415151561284357600080fd5b80915050919050565b60008073ffffffffffffffffffffffffffffffffffffffff168273ffffffffffffffffffffffffffffffffffffffff161415151561288957600080fd5b600360008373ffffffffffffffffffffffffffffffffffffffff1673ffffffffffffffffffffffffffffffffffffffff168152602001908152602001600020549050919050565b60006128f18473ffffffffffffffffffffffffffffffffffffffff16613126565b15156129005760019050612aeb565b60008473ffffffffffffffffffffffffffffffffffffffff1663150b7a02338887876040518563ffffffff167c0100000000000000000000000000000000000000000000000000000000028152600401808573ffffffffffffffffffffffffffffffffffffffff1673ffffffffffffffffffffffffffffffffffffffff1681526020018473ffffffffffffffffffffffffffffffffffffffff1673ffffffffffffffffffffffffffffffffffffffff16815260200183815260200180602001828103825283818151815260200191508051906020019080838360005b838110156129f75780820151818401526020810190506129dc565b50505050905090810190601f168015612a245780820380516001836020036101000a031916815260200191505b5095505050505050602060405180830381600087803b158015612a4657600080fd5b505af1158015612a5a573d6000803e3d6000fd5b505050506040513d6020811015612a7057600080fd5b8101908080519060200190929190505050905063150b7a027c0100000000000000000000000000000000000000000000000000000000027bffffffffffffffffffffffffffffffffffffffffffffffffffffffff1916817bffffffffffffffffffffffffffffffffffffffffffffffffffffffff1916149150505b949350505050565b60606000821415612b3b576040805190810160405280600181526020017f30000000000000000000000000000000000000000000000000000000000000008152509050612c47565b600082905060005b600082141515612b69578080600101915050600a82811515612b6157fe5b049150612b43565b6060816040519080825280601f01601f191660200182016040528015612b9e5781602001600182028038833980820191505090505b50905060006001830390505b600086141515612c3f57600a86811515612bc057fe5b066030017f010000000000000000000000000000000000000000000000000000000000000002828280600190039350815181101515612bfb57fe5b9060200101907effffffffffffffffffffffffffffffffffffffffffffffffffffffffffffff1916908160001a905350600a86811515612c3757fe5b049550612baa565b819450505050505b919050565b600073ffffffffffffffffffffffffffffffffffffffff168173ffffffffffffffffffffffffffffffffffffffff1614151515612c8857600080fd5b8073ffffffffffffffffffffffffffffffffffffffff16600c60009054906101000a900473ffffffffffffffffffffffffffffffffffffffff1673ffffffffffffffffffffffffffffffffffffffff167f8be0079c531659141344cd1fd0a4f28419497f9722a3daafe3b4186f6b6457e060405160405180910390a380600c60006101000a81548173ffffffffffffffffffffffffffffffffffffffff021916908373ffffffffffffffffffffffffffffffffffffffff16021790555050565b612d506112a5565b81108015612d645750612d6281612703565b155b1515612d6f57600080fd5b6001601460006101000a81548160ff021916908315150217905550612d9b612d95611f90565b826127ad565b6000601460006101000a81548160ff021916908315150217905550604080519081016040528042815260200160008152506017600083815260200190815260200160002060008201518160000155602082015181600101559050506001601160008282540192505081905550601254811415612e535760006001820190505b612e226112a5565b811015612e4a57612e3281612703565b1515612e3d57612e4a565b8080600101915050612e1a565b80601281905550505b50565b612e61838383613139565b612e6b838261339e565b612e758282613013565b505050565b600073ffffffffffffffffffffffffffffffffffffffff168273ffffffffffffffffffffffffffffffffffffffff1614151515612eb657600080fd5b612ebf81612504565b151515612ecb57600080fd5b816001600083815260200190815260200160002060006101000a81548173ffffffffffffffffffffffffffffffffffffffff021916908373ffffffffffffffffffffffffffffffffffffffff160217905550612f706001600360008573ffffffffffffffffffffffffffffffffffffffff1673ffffffffffffffffffffffffffffffffffffffff1681526020019081526020016000205461254d90919063ffffffff16565b600360008473ffffffffffffffffffffffffffffffffffffffff1673ffffffffffffffffffffffffffffffffffffffff16815260200190815260200160002081905550808273ffffffffffffffffffffffffffffffffffffffff16600073ffffffffffffffffffffffffffffffffffffffff167fddf252ad1be2c89b69c2b068fc378daa952ba7f163c4a11628f55a4df523b3ef60405160405180910390a45050565b600560008373ffffffffffffffffffffffffffffffffffffffff1673ffffffffffffffffffffffffffffffffffffffff168152602001908152602001600020805490506006600083815260200190815260200160002081905550600560008373ffffffffffffffffffffffffffffffffffffffff1673ffffffffffffffffffffffffffffffffffffffff1681526020019081526020016000208190806001815401808255809150509060018203906000526020600020016000909192909190915055505050565b6007805490506008600083815260200190815260200160002081905550600781908060018154018082558091505090600182039060005260206000200160009091929091909150555050565b600080823b905060008111915050919050565b8273ffffffffffffffffffffffffffffffffffffffff1661315982611ca7565b73ffffffffffffffffffffffffffffffffffffffff1614151561317b57600080fd5b600073ffffffffffffffffffffffffffffffffffffffff168273ffffffffffffffffffffffffffffffffffffffff16141515156131b757600080fd5b6131c081613542565b6132136001600360008673ffffffffffffffffffffffffffffffffffffffff1673ffffffffffffffffffffffffffffffffffffffff1681526020019081526020016000205461256e90919063ffffffff16565b600360008573ffffffffffffffffffffffffffffffffffffffff1673ffffffffffffffffffffffffffffffffffffffff168152602001908152602001600020819055506132a96001600360008573ffffffffffffffffffffffffffffffffffffffff1673ffffffffffffffffffffffffffffffffffffffff1681526020019081526020016000205461254d90919063ffffffff16565b600360008473ffffffffffffffffffffffffffffffffffffffff1673ffffffffffffffffffffffffffffffffffffffff16815260200190815260200160002081905550816001600083815260200190815260200160002060006101000a81548173ffffffffffffffffffffffffffffffffffffffff021916908373ffffffffffffffffffffffffffffffffffffffff160217905550808273ffffffffffffffffffffffffffffffffffffffff168473ffffffffffffffffffffffffffffffffffffffff167fddf252ad1be2c89b69c2b068fc378daa952ba7f163c4a11628f55a4df523b3ef60405160405180910390a4505050565b60006133f66001600560008673ffffffffffffffffffffffffffffffffffffffff1673ffffffffffffffffffffffffffffffffffffffff1681526020019081526020016000208054905061256e90919063ffffffff16565b905060006006600084815260200190815260200160002054905081811415156134e9576000600560008673ffffffffffffffffffffffffffffffffffffffff1673ffffffffffffffffffffffffffffffffffffffff1681526020019081526020016000208381548110151561346757fe5b9060005260206000200154905080600560008773ffffffffffffffffffffffffffffffffffffffff1673ffffffffffffffffffffffffffffffffffffffff168152602001908152602001600020838154811015156134c157fe5b9060005260206000200181905550816006600083815260200190815260200160002081905550505b600560008573ffffffffffffffffffffffffffffffffffffffff1673ffffffffffffffffffffffffffffffffffffffff16815260200190815260200160002080548091906001900361353b919061369c565b5050505050565b600073ffffffffffffffffffffffffffffffffffffffff166002600083815260200190815260200160002060009054906101000a900473ffffffffffffffffffffffffffffffffffffffff1673ffffffffffffffffffffffffffffffffffffffff161415156135ff5760006002600083815260200190815260200160002060006101000a81548173ffffffffffffffffffffffffffffffffffffffff021916908373ffffffffffffffffffffffffffffffffffffffff1602179055505b50565b828054600181600116156101000203166002900490600052602060002090601f016020900481019282601f1061364357805160ff1916838001178555613671565b82800160010185558215613671579182015b82811115613670578251825591602001919060010190613655565b5b50905061367e91906136c8565b5090565b604080519081016040528060008152602001600081525090565b8154818355818111156136c3578183600052602060002091820191016136c291906136c8565b5b505050565b6136ea91905b808211156136e65760008160009055506001016136ce565b5090565b9056fea165627a7a7230582042f0a5f5fbd72e34cd82fbd72ebba331d9fd7b1b47ce0a2b32c03164c567a7090029",
  "source": "pragma solidity >=0.4.21 <0.6.0;\n\nimport \"openzeppelin-solidity/contracts/token/ERC721/ERC721Full.sol\";\nimport \"openzeppelin-solidity/contracts/ownership/Ownable.sol\";\nimport 'openzeppelin-solidity/contracts/math/SafeMath.sol';\n\ninterface IStraw {\n  function parent(uint256 tokenId) external view returns (uint256);\n  function ownerOf(uint256 tokenId) external view returns (address);\n  function burn(uint256 tokenId) external;\n}\n\ncontract Cow is ERC721Full, Ownable {\n  using SafeMath for uint256;\n\n  string public baseURI;\n  uint256 public startTime;\n  uint256 public genZeroInterval;\n  uint256 private genZeroLimit;\n  uint256 private genZeroMateralizedCount;\n  uint256 private genZeroEarliestUnmaterialized;\n  uint256 private nextMoof;\n  bool private materializing;\n  uint256 constant MAX_UINT = 2**256 - 1;\n  IStraw private straws;\n  mapping (uint256 => bytes32) private dnaSequence;\n  struct Pairing {\n    uint256 parent0;\n    uint256 parent1;\n  }\n  struct LastStraw {\n    uint256 timestamp;\n    uint256 counter;\n  }\n  mapping (uint256 => Pairing) private parents;\n  mapping (uint256 => LastStraw) public lastStraw;\n\n  event Moof(address indexed owner, uint256 tokenid);\n  // event Debug(bool value);\n  // event Debug(uint256 value);\n\n  constructor (string memory name, string memory symbol, uint256 _genZeroInterval, uint256 _genZeroLimit) public ERC721Full(name, symbol) Ownable() {\n    // solhint-disable-previous-line no-empty-blocks\n    startTime = block.timestamp;\n    genZeroInterval = _genZeroInterval;\n    genZeroLimit = _genZeroLimit;\n    nextMoof = genZeroLimit + 1;\n  }\n  function setStraws(address _straws) public onlyOwner {\n    require(address(straws) == address(0));\n    straws = IStraw(_straws);\n  }\n  function setBaseURI(string memory _baseURI) public onlyOwner {\n    baseURI = _baseURI;\n  }\n  function tokenURI(uint256 tokenId) external view returns (string memory) {\n    require(_exists(tokenId));\n    return string(abi.encodePacked(baseURI, uint2str(tokenId)));\n  }\n  function totalSupply() public view returns (uint256) {\n    return super.totalSupply().add(genZeroCount()).sub(genZeroMateralizedCount);\n  }\n  function balanceOf(address _owner) public view returns (uint256) {\n    if(_owner != owner()) {\n      return super.balanceOf(_owner);\n    } else {\n      return genZeroCount().sub(genZeroMateralizedCount);\n    }\n  }\n  function ownerOf(uint256 tokenId) public view returns (address) {\n    if(super._exists(tokenId)) {\n      return super.ownerOf(tokenId);\n    }\n    require(tokenId < genZeroCount());\n    return owner();\n  }\n  function tokenOfOwnerByIndex(address _owner, uint256 index) public view returns (uint256) {\n    if(_owner != owner()) {\n      return super.tokenOfOwnerByIndex(_owner, index);\n    } else {\n      uint256 counter = 0;\n      for(uint i=genZeroEarliestUnmaterialized; i < genZeroCount(); i++) {\n        if(!super._exists(i)) {\n          if(counter == index) {\n            return i;\n          }\n          counter += 1;\n        }\n      }\n    }\n    require(false, \"INDEX_ERROR_COW\");\n  }\n  function tokenByIndex(uint256 index) public view returns (uint256) {\n    require(index < totalSupply());\n    if(index < super.totalSupply()) {\n      return super.tokenByIndex(index);\n    }\n    uint256 target = index - super.totalSupply() + 1;\n    for(uint i=genZeroEarliestUnmaterialized; i < genZeroCount(); i++) {\n      if(!super._exists(i)) {\n        target -= 1;\n      }\n      if(target == 0) {\n        return i;\n      }\n    }\n    require(false, \"INDEX_OUT_OF_RANGE\");\n  }\n  function getDNA(uint256 tokenId) public view returns (bytes32) {\n    require(_exists(tokenId));\n    if(tokenId < genZeroLimit) {\n      return keccak256(abi.encodePacked(tokenId, startTime));\n    }\n    return dnaSequence[tokenId];\n  }\n  function blockTime() public view returns (uint256) {\n    return block.timestamp;\n  }\n\n  function getMoofactoryPeriod(uint256 tokenId) public view returns (uint256) {\n    // Get the least significant 17 bits as seconds, add 12 hours. Gives a range\n    // of roughly 12 - 48 hours\n    return (uint256(getDNA(tokenId)) & 131071) + 43200;\n  }\n\n  function moof(uint256 strawId1, uint256 strawId2) public {\n    require(straws.ownerOf(strawId1) == msg.sender, \"BAD_OWNERSHIP1\");\n    require(straws.ownerOf(strawId2) == msg.sender, \"BAD_OWNERSHIP2\");\n    Pairing memory _parents = Pairing({parent0: straws.parent(strawId1), parent1: straws.parent(strawId2)});\n    require(_parents.parent0 != _parents.parent1, \"SAME_PARENT\");\n    uint256 mixer = uint256(keccak256(abi.encodePacked(strawId1, strawId2, _parents.parent0, _parents.parent1, startTime)));\n    nextMoof += 1;\n    _mint(msg.sender, nextMoof);\n    dnaSequence[nextMoof] = bytes32((mixer & uint256(getDNA(_parents.parent0))) | ((mixer ^ MAX_UINT ) & uint256(getDNA(_parents.parent1))));\n    emit Moof(msg.sender, nextMoof);\n    straws.burn(strawId1);\n    straws.burn(strawId2);\n  }\n\n  function generatedStraw(uint256 tokenId) public {\n    require(msg.sender == address(straws), \"WRONG_GENERATOR\");\n    lastStraw[tokenId].timestamp = block.timestamp;\n    lastStraw[tokenId].counter = lastStraw[tokenId].counter.add(1);\n  }\n\n  function nextStraw(uint256 tokenId) public view returns (uint256, uint256) {\n    return (lastStraw[tokenId].timestamp + getMoofactoryPeriod(tokenId), lastStraw[tokenId].counter + 1);\n  }\n\n  function _transferFrom(address from, address to, uint256 tokenId) internal {\n    if(!super._exists(tokenId) && from == owner()) {\n      _materialize(tokenId);\n    }\n    super._transferFrom(from, to, tokenId);\n  }\n\n\n  function _materialize(uint256 tokenId) internal {\n    require(tokenId < genZeroCount() && !super._exists(tokenId));\n    materializing = true;\n    _mint(owner(), tokenId);\n    materializing = false;\n    lastStraw[tokenId] = LastStraw({timestamp: block.timestamp, counter: 0});\n    genZeroMateralizedCount += 1;\n    if(tokenId == genZeroEarliestUnmaterialized) {\n      uint i = tokenId + 1;\n      for(; i < genZeroCount(); i++) {\n        if(!super._exists(i)) {\n          break;\n        }\n      }\n      genZeroEarliestUnmaterialized = i;\n    }\n  }\n  function _exists(uint256 tokenId) internal view returns (bool) {\n    return (super._exists(tokenId) || (!materializing && tokenId < genZeroCount()));\n  }\n  function genZeroCount() public view returns (uint256) {\n    uint256 intervals = (block.timestamp - startTime) / genZeroInterval;\n    if(intervals > genZeroLimit) {\n      return genZeroLimit;\n    }\n    return intervals;\n  }\n  function uint2str(uint _i) internal pure returns (string memory _uintAsString) {\n    if (_i == 0) {\n        return \"0\";\n    }\n    uint j = _i;\n    uint len;\n    while (j != 0) {\n        len++;\n        j /= 10;\n    }\n    bytes memory bstr = new bytes(len);\n    uint k = len - 1;\n    while (_i != 0) {\n        bstr[k--] = byte(uint8(48 + _i % 10));\n        _i /= 10;\n    }\n    return string(bstr);\n  }\n}\n\n\n/*\nBits  (0 is least significant)\n0:17 - moofactory period\n*/\n",
  "sourcePath": "/home/aroberts/Projects/openrelay/cryptocattle/contracts/cattle/contracts/Cow.sol",
  "compiler": {
    "name": "solc",
    "version": "0.5.0+commit.1d4f565a.Emscripten.clang"
  },
  "schemaVersion": "3.0.2",
  "updatedAt": "2019-02-17T03:56:41.365Z",
  "devdoc": {
    "methods": {
      "approve(address,uint256)": {
        "details": "Approves another address to transfer the given token ID The zero address indicates there is no approved address. There can only be one approved address per token at a given time. Can only be called by the token owner or an approved operator.",
        "params": {
          "to": "address to be approved for the given token ID",
          "tokenId": "uint256 ID of the token to be approved"
        }
      },
      "getApproved(uint256)": {
        "details": "Gets the approved address for a token ID, or zero if no address set Reverts if the token ID does not exist.",
        "params": {
          "tokenId": "uint256 ID of the token to query the approval of"
        },
        "return": "address currently approved for the given token ID"
      },
      "isApprovedForAll(address,address)": {
        "details": "Tells whether an operator is approved by a given owner",
        "params": {
          "operator": "operator address which you want to query the approval of",
          "owner": "owner address which you want to query the approval of"
        },
        "return": "bool whether the given operator is approved by the given owner"
      },
      "isOwner()": {
        "return": "true if `msg.sender` is the owner of the contract."
      },
      "name()": {
        "details": "Gets the token name",
        "return": "string representing the token name"
      },
      "owner()": {
        "return": "the address of the owner."
      },
      "renounceOwnership()": {
        "details": "Allows the current owner to relinquish control of the contract."
      },
      "safeTransferFrom(address,address,uint256)": {
        "details": "Safely transfers the ownership of a given token ID to another address If the target address is a contract, it must implement `onERC721Received`, which is called upon a safe transfer, and return the magic value `bytes4(keccak256(\"onERC721Received(address,address,uint256,bytes)\"))`; otherwise, the transfer is reverted.     * Requires the msg sender to be the owner, approved, or operator",
        "params": {
          "from": "current owner of the token",
          "to": "address to receive the ownership of the given token ID",
          "tokenId": "uint256 ID of the token to be transferred"
        }
      },
      "safeTransferFrom(address,address,uint256,bytes)": {
        "details": "Safely transfers the ownership of a given token ID to another address If the target address is a contract, it must implement `onERC721Received`, which is called upon a safe transfer, and return the magic value `bytes4(keccak256(\"onERC721Received(address,address,uint256,bytes)\"))`; otherwise, the transfer is reverted. Requires the msg sender to be the owner, approved, or operator",
        "params": {
          "_data": "bytes data to send along with a safe transfer check",
          "from": "current owner of the token",
          "to": "address to receive the ownership of the given token ID",
          "tokenId": "uint256 ID of the token to be transferred"
        }
      },
      "setApprovalForAll(address,bool)": {
        "details": "Sets or unsets the approval of a given operator An operator is allowed to transfer all tokens of the sender on their behalf",
        "params": {
          "approved": "representing the status of the approval to be set",
          "to": "operator address to set the approval"
        }
      },
      "supportsInterface(bytes4)": {
        "details": "implement supportsInterface(bytes4) using a lookup table"
      },
      "symbol()": {
        "details": "Gets the token symbol",
        "return": "string representing the token symbol"
      },
      "transferFrom(address,address,uint256)": {
        "details": "Transfers the ownership of a given token ID to another address Usage of this method is discouraged, use `safeTransferFrom` whenever possible Requires the msg sender to be the owner, approved, or operator",
        "params": {
          "from": "current owner of the token",
          "to": "address to receive the ownership of the given token ID",
          "tokenId": "uint256 ID of the token to be transferred"
        }
      },
      "transferOwnership(address)": {
        "details": "Allows the current owner to transfer control of the contract to a newOwner.",
        "params": {
          "newOwner": "The address to transfer ownership to."
        }
      }
    }
  },
  "userdoc": {
    "methods": {
      "renounceOwnership()": {
        "notice": "Renouncing to ownership will leave the contract without an owner. It will not be possible to call the functions with the `onlyOwner` modifier anymore."
      }
    }
  }
}